:020000040800F2
:100000008806002065010008610500081905000840
:1000100000000000000000000000000000000000E0
:10002000000000000000000000000000E3050008E0
:100030000000000000000000E1050008E5050008E0
:1000400077010008770100087701000877010008B0
:1000500077010008770100087701000877010008A0
:100060007701000877010008770100087701000890
:100070007701000877010008770100087701000880
:1000800077010008F50500087701000877010008EE
:100090007701000877010008770100087701000860
:1000A0007701000877010008770100087701000850
:1000B0007701000877010008770100087701000840
:1000C00000F002F800F03EF80CA030C80838241800
:1000D0002D18A246671EAB4654465D46AC4201D180
:1000E00000F030F87E460F3E0FCCB6460126334274
:1000F00000D0FB1AA246AB46334318474C0700001A
:100100006C070000103A02D378C878C1FAD85207B9
:1001100001D330C830C101D504680C6070470000BD
:100120000023002400250026103A01D378C1FBD813
:10013000520700D330C100D50B6070471FB51FBDFB
:1001400010B510BD00F0DAF81146FFF7F7FF00F028
:1001500003FB00F0F2F803B4FFF7F2FF03BC00F07A
:10016000F9F800000748804707480047FEE7FEE728
:10017000FEE7FEE7FEE7FEE704480549054A064BB1
:1001800070470000F1050008C10000088800002049
:10019000880600208802002088020020002203092F
:1001A0008B422CD3030A8B4211D300239C464EE092
:1001B00003460B433CD4002243088B4231D303094E
:1001C0008B421CD3030A8B4201D394463FE0C30900
:1001D0008B4201D3CB01C01A524183098B4201D318
:1001E0008B01C01A524143098B4201D34B01C01A03
:1001F000524103098B4201D30B01C01A5241C3087B
:100200008B4201D3CB00C01A524183088B4201D3E9
:100210008B00C01A524143088B4201D34B00C01AD5
:100220005241411A00D201465241104670475DE0EA
:10023000CA0F00D04942031000D34042534000226D
:100240009C4603098B422DD3030A8B4212D3FC2216
:10025000890112BA030A8B420CD3890192118B4295
:1002600008D3890192118B4204D389013AD09211AB
:1002700000E08909C3098B4201D3CB01C01A524166
:1002800083098B4201D38B01C01A524143098B422F
:1002900001D34B01C01A524103098B4201D30B0118
:1002A000C01A5241C3088B4201D3CB00C01A52413D
:1002B00083088B4201D38B00C01A5241D9D2430824
:1002C0008B4201D34B00C01A5241411A00D2014661
:1002D000634652415B10104601D34042002B00D5CB
:1002E0004942704763465B1000D3404201B500208D
:1002F000C046C04602BD704770477047754600F063
:1003000025F8AE46050069465346C008C00085463C
:1003100018B020B5FFF730FF60BC00274908B6468B
:100320000026C0C5C0C5C0C5C0C5C0C5C0C5C0C504
:10033000C0C5403D49008D46704710B50446C046D3
:10034000C0462046FFF707FF10BD00000048704779
:100350002400002001491820ABBEFEE72600020061
:10036000704700000920C00601680C22114301609B
:100370001148816942151143816110480021C16013
:10038000C26843141A43C260826A02231A4382621B
:100390008160816842051143816081680029FCDB2E
:1003A00081680122114381600168C907FCD081681E
:1003B0000422114381607047001002400024014074
:1003C00070B5044600F00EF80546601C02D00448E3
:1003D0000078241800F006F8401BA042FAD370BD44
:1003E00014000020014880687047000014000020BD
:1003F00002488168027889188160704714000020E3
:1004000010B506480168102211430160032000F076
:1004100007F800F027F8002010BD0000002002407F
:1004200070B504460D4D7D202978C000FFF7B6FE5B
:1004300001460B480068FFF7B1FE00F055F80028B0
:1004400009D1042C07D200222146401E00F01EF8DC
:1004500000206C6070BD012070BD00001400002001
:100460002000002008B508488169012211438161FC
:10047000816911400091C26901040A43C261C069E7
:100480000840009008BD00000010024010B500F0C8
:10049000CBF810BD11484168490041600921C906E7
:1004A0000969C90703D041680122114341604068CE
:1004B0000B4988420ED10B480021415E00290AD029
:1004C000322905D0502901D0002102E0322100E07C
:1004D0005121018070475021FBE7000000000020FF
:1004E000FFFFFF7F0E000020094910B5401E884223
:1004F00001D9012010BD074C60610321081F00F0E5
:1005000093F80020A06107202061002010BD0000AA
:10051000FFFFFF0000E000E0FEE700000E48416939
:100520000122D204114341610C48016805221204E2
:10053000114301604268032109028A4342608368D3
:100540000F22120493438360C3689343C3604269DC
:100550008A434261704700000010024000080048D2
:10056000FEE7000070B51C4CE08821894000401A6D
:100570006081A08861894018A0800421615E1920F3
:10058000C001814201DDA08005E00420205E00283A
:1005900001DA0020F7E7A07861894843E178A28872
:1005A0005143401800B2C117C90E08184511642DF7
:1005B00001DD642502E0002D00DA0025E8B200F03C
:1005C00035F9257005480068400703D503484030D9
:1005D0000068607070BD0000080000200024014029
:1005E0007047704710B5FFF703FFFFF753FF10BDCB
:1005F0007047000010B50848416A084A8918084A3F
:100600001181064949424162FFF7ACFF0548016983
:1006100049084900016110BD000400400180FFFF4E
:1006200008000020001000408307FF22DB0E9A40E4
:100630008907090E9940002808DB830809489B00B8
:100640001B18186890430843186070470007000F94
:100650000838830804489B001B18D8699043084356
:10066000D861704700E400E000ED00E00A4841690D
:1006700001225204114341610920C0060168890822
:100680008900016005488168890889008160C16826
:1006900002221143C1607047001002400008004868
:1006A00025494869012292041043486123480268A1
:1006B00005231B029A43026002685B001A43026032
:1006C000026A11231B041A430262C8690222104302
:1006D000C8611B48002282610262826002608269F6
:1006E000FF2302331A438261826803231A43826024
:1006F000144AC2625210426203680122134303602B
:10070000C86910231843C8610F480B2181620F4943
:10071000C162C1681143C1600168114301600C49A5
:10072000401308600B490868FF2212029043DA0266
:1007300010430860704700000010024000040048A9
:1007400000040040FFFF0000001000403075000072
:1007500000E100E010E400E00B4D00206860FFF7CE
:100760004FFEFFF7DBFEFFF781FF00F011F8074CAB
:1007700001267602E704606970406061786A28604B
:100780008020FFF71DFEF6E700000020000800486B
:1007900000B500F005F8FFF783FFFFF7E3FD00BDAC
:1007A0000920C0060168012252021143016002685B
:1007B000FF2101318A430260026A0F231B049A431E
:1007C0000262026A8B021A43026202680F239B02D2
:1007D0009A430260026805239B021A430260426941
:1007E00020231A434261426940239A4342610D48E3
:1007F000C2690A43C2610C48002101608161016243
:10080000826968231A438261036A012213430362E7
:1008100082624B231B01C362416301681143016083
:1008200070470000001002400020004010B564280E
:1008300006D8044CE26A64215043FFF7AFFC6063C2
:1008400010BD0000002000406808000800000020E3
:1008500024000000040100088C0800082400002087
:1008600064060000200100080000000000000000F5
:100870000000010100000000000000000100000075
:0C088000040000000000000000127A00DC
:04000005080000C12E
:00000001FF
